{
  "transactions": [
    {
      "hash": "0xf6adc98e055fbd25aaa3080b68822e5f57ec347885083f33ad00ebe14e68ea16",
      "transactionType": "CALL",
      "contractName": null,
      "contractAddress": "0x023cdb354f655ded93df8f5c220cb43f82194d92",
      "function": "addStake(address,uint128,uint32)",
      "arguments": [
        "0x0000000000000000000000000000000000000000",
        "10000000000000000",
        "86400"
      ],
      "transaction": {
        "from": "0x129a50835eb5efa2253b2f0ec2fbf84b2cee1ff9",
        "to": "0x023cdb354f655ded93df8f5c220cb43f82194d92",
        "gas": "0xa86a",
        "value": "0x2386f26fc10000",
        "input": "0x8e0581d70000000000000000000000000000000000000000000000000000000000000000000000000000000000000000000000000000000000000000002386f26fc100000000000000000000000000000000000000000000000000000000000000015180",
        "nonce": "0x9",
        "chainId": "0xaa36a7"
      },
      "additionalContracts": [],
      "isFixedGasLimit": false
    }
  ],
  "receipts": [
    {
      "status": "0x1",
      "cumulativeGasUsed": "0xa785de",
      "logs": [
        {
          "address": "0x023cdb354f655ded93df8f5c220cb43f82194d92",
          "topics": [
            "0xe3367079aff995a91000a0abf0d7d0af1f38ab623d1f23f44daf2216cc8f0fd4",
            "0x000000000000000000000000129a50835eb5efa2253b2f0ec2fbf84b2cee1ff9",
            "0x0000000000000000000000000000000000000000000000000000000000000000"
          ],
          "data": "0x0000000000000000000000000000000000000000000000000000000000000000000000000000000000000000000000000000000000000000002386f26fc1000000000000000000000000000000000000000000000000000000470de4df82000000000000000000000000000000000000000000000000000000000000671592f0",
          "blockHash": "0x6cca067569ce03d8b332728fd25e58432aa4fbb304bd2b89ac420a942fab71d1",
          "blockNumber": "0x696455",
          "transactionHash": "0xf6adc98e055fbd25aaa3080b68822e5f57ec347885083f33ad00ebe14e68ea16",
          "transactionIndex": "0x4c",
          "logIndex": "0x80",
          "removed": false
        }
      ],
      "logsBloom": "0x00000000000000000000020000000000000004000000000000000000000000000000000000000000000000000000000000000000000000000000010000000000000000000000000001000200000000000000000000000000000000000000000000000000020000000000000000000800000000000000000000000000000000000000000000000000000000000000000000000000000000000000000000000000080000000000000000000000000000000000000000000000000000000000000000000000000000000000000000000100000000000000000000080000000020000000000000000000000000000000000000000000000000000004000000000000",
      "type": "0x2",
      "transactionHash": "0xf6adc98e055fbd25aaa3080b68822e5f57ec347885083f33ad00ebe14e68ea16",
      "transactionIndex": "0x4c",
      "blockHash": "0x6cca067569ce03d8b332728fd25e58432aa4fbb304bd2b89ac420a942fab71d1",
      "blockNumber": "0x696455",
      "gasUsed": "0x79ef",
      "effectiveGasPrice": "0x13040a",
      "blobGasUsed": "0x0",
      "from": "0x129a50835eb5efa2253b2f0ec2fbf84b2cee1ff9",
      "to": "0x023cdb354f655ded93df8f5c220cb43f82194d92",
      "contractAddress": null
    }
  ],
  "libraries": [],
  "pending": [],
  "returns": {},
  "timestamp": 1729380722,
  "chain": 11155111,
  "commit": "2556918"
}