{
  "transactions": [
    {
      "hash": "0xfc6bf7c89b86c8e72d03a0b67c808c622a0e0da74265ccadd208a19f3c1c8a69",
      "transactionType": "CALL",
      "contractName": null,
      "contractAddress": "0x023cdb354f655ded93df8f5c220cb43f82194d92",
      "function": "addStake(address,uint128,uint32)",
      "arguments": [
        "0x0000000000000000000000000000000000000000",
        "1230000000000000",
        "172800"
      ],
      "transaction": {
        "from": "0x129a50835eb5efa2253b2f0ec2fbf84b2cee1ff9",
        "to": "0x023cdb354f655ded93df8f5c220cb43f82194d92",
        "gas": "0xa86a",
        "value": "0x45eadb112e000",
        "input": "0x8e0581d7000000000000000000000000000000000000000000000000000000000000000000000000000000000000000000000000000000000000000000045eadb112e000000000000000000000000000000000000000000000000000000000000002a300",
        "nonce": "0xa",
        "chainId": "0xaa36a7"
      },
      "additionalContracts": [],
      "isFixedGasLimit": false
    }
  ],
  "receipts": [
    {
      "status": "0x1",
      "cumulativeGasUsed": "0x35d497",
      "logs": [
        {
          "address": "0x023cdb354f655ded93df8f5c220cb43f82194d92",
          "topics": [
            "0xe3367079aff995a91000a0abf0d7d0af1f38ab623d1f23f44daf2216cc8f0fd4",
            "0x000000000000000000000000129a50835eb5efa2253b2f0ec2fbf84b2cee1ff9",
            "0x0000000000000000000000000000000000000000000000000000000000000000"
          ],
          "data": "0x000000000000000000000000000000000000000000000000000000000000000000000000000000000000000000000000000000000000000000045eadb112e000000000000000000000000000000000000000000000000000004b6c929094e000000000000000000000000000000000000000000000000000000000006716e830",
          "blockHash": "0xb611424febcbc45f378c7b9d5640fd6913b8e2b4528a897c55e181a83cf8ce1a",
          "blockNumber": "0x696497",
          "transactionHash": "0xfc6bf7c89b86c8e72d03a0b67c808c622a0e0da74265ccadd208a19f3c1c8a69",
          "transactionIndex": "0x1a",
          "logIndex": "0x26",
          "removed": false
        }
      ],
      "logsBloom": "0x00000000000000000000020000000000000004000000000000000000000000000000000000000000000000000000000000000000000000000000010000000000000000000000000001000200000000000000000000000000000000000000000000000000020000000000000000000800000000000000000000000000000000000000000000000000000000000000000000000000000000000000000000000000080000000000000000000000000000000000000000000000000000000000000000000000000000000000000000000100000000000000000000080000000020000000000000000000000000000000000000000000000000000004000000000000",
      "type": "0x2",
      "transactionHash": "0xfc6bf7c89b86c8e72d03a0b67c808c622a0e0da74265ccadd208a19f3c1c8a69",
      "transactionIndex": "0x1a",
      "blockHash": "0xb611424febcbc45f378c7b9d5640fd6913b8e2b4528a897c55e181a83cf8ce1a",
      "blockNumber": "0x696497",
      "gasUsed": "0x79ef",
      "effectiveGasPrice": "0x10c3a2",
      "blobGasUsed": "0x0",
      "from": "0x129a50835eb5efa2253b2f0ec2fbf84b2cee1ff9",
      "to": "0x023cdb354f655ded93df8f5c220cb43f82194d92",
      "contractAddress": null
    }
  ],
  "libraries": [],
  "pending": [],
  "returns": {},
  "timestamp": 1729381689,
  "chain": 11155111,
  "commit": "2556918"
}